:100000000C9434000C9449010C9476010C94460035
:100010000C9446000C9446000C9446000C94460048
:100020000C9446000C9446000C9446000C94460038
:100030000C9446000C9446000C9446000C94460028
:100040000C9446000C9446000C9446000C94460018
:100050000C9446000C9446000C9446000C94460008
:100060000C9446000C94460011241FBECFEFD8E03C
:10007000DEBFCDBF21E0A0E0B1E001C01D92A13103
:10008000B207E1F70E94A3010C94B0010C940000A8
:1000900085B5846085BD089516BC40E026B530E086
:1000A000281739077CF429B1322F347022FD04C09F
:1000B0004423A1F381E00895432F26B530E02817AB
:1000C00039078CF380E0089516BC20E086B590E0F7
:1000D0008B349105A4F489B1982F947082FD11C0DE
:1000E0002223A1F316BC20E086B590E0C99784F4E2
:1000F00089B1982F947082FD06C02223A9F382E073
:100100000895292FE3CF292F86B590E0C99784F36E
:1001100089B182FB882780F991E089270895CF93E0
:1001200016BC20E086B590E08D3991051CF589B1AB
:10013000982F947082FD20C02223A1F3C7E00E9473
:1001400064008230B9F0C150D1F7209101013091A3
:10015000020181E090E0232B11F080E090E0909389
:100160000201809301018091010190910201892B8C
:1001700029F05F9ACF910895292FD4CF8BB11BB866
:10018000CF910895E62FE150E7FD16C0FF27E7FD68
:10019000F0953196E80FF91F20E030E080E0482F1D
:1001A000440F550B8291840F21503109922F9150A9
:1001B000960F97FFF4CF089580E00895E091000135
:1001C000EE2341F0E150E0930001F0E0E95FFE4FE3
:1001D0008081089580E00895109200010895909123
:1001E00000019A3049F0E92FF0E09F5FE95FFE4F90
:1001F0008083909300010895E8E0F1E0A7E0B1E08A
:1002000091919D9391E0E131F907D1F79AE0E9E00E
:10021000F0E0E95FFE4F8083909300010895823003
:1002200008F00895E82FF0E0EE0FFF1FED5FFE4F9E
:1002300071836083813041F0809169008C7F842BD1
:1002400080936900E89A089580916900440F551FD2
:10025000440F551F837F842B80936900E99A08958A
:10026000823008F00895813051F0E898E82FF0E0EE
:10027000EE0FFF1FED5FFE4F118210820895E99887
:10028000E82FF0E0EE0FFF1FED5FFE4F11821082AE
:10029000F5CF1F920F920FB60F9211242F933F9319
:1002A0004F935F936F937F938F939F93AF93BF937E
:1002B000EF93FF938091030190910401892B29F022
:1002C000E0910301F09104010995FF91EF91BF9135
:1002D000AF919F918F917F916F915F914F913F91DE
:1002E0002F910F900FBE0F901F9018951F920F9295
:1002F0000FB60F9211242F933F934F935F936F93F9
:100300007F938F939F93AF93BF93EF93FF938091CE
:10031000050190910601892B29F0E0910501F091EA
:1003200006010995FF91EF91BF91AF919F918F9138
:100330007F916F915F914F913F912F910F900FBEE1
:100340000F901F901895579A789485B5846085BD55
:1003500043E050E06FE870E080E00E940F01FFCFC3
:04036000F894FFCF3F
:00000001FF
